:040000000DEF00F010
:040008000FEF00F006
:10001800FF002DEF02F0FAC441F5FBC442F5ACA293
:1000280018EF00F01AEF00F030EF00F0B7A21FEF62
:1000380000F021EF00F030EF00F002D82EEF00F0D2
:100048000500FA6E3C50FD6E3D50FE6EF850FF6E96
:10005800FA50120071EF00F0ACA035EF00F037EF66
:1000680000F04DEF00F0B7A03CEF00F03EEF00F0DD
:100078004DEF00F002D84BEF00F00500FA6E3E504D
:10008800FD6E3F50FE6EF850FF6EFA50120071EF91
:1000980000F0ABAE52EF00F054EF00F05FEF00F06D
:1000A800B6AE59EF00F05BEF00F05FEF00F010EC38
:1000B80002F071EF00F0A9A464EF00F066EF00F021
:1000C80071EF00F0B4A46BEF00F06DEF00F071EF8A
:1000D80000F05DEC02F071EF00F042C5FBF441C5A1
:1000E800FAF41100010E2D24D96EDA6A050EDA220F
:1000F800000EDF6E0201B2A784EF00F086EF00F079
:100108009AEF00F0010E2D24D96EDA6A050EDA2274
:10011800DF8202D89AEF00F00500FA6E3A50FD6EC1
:100128003B50FE6EF850FF6EFA5012000201B2A367
:10013800A0EF00F0A2EF00F0B6EF00F0010E2D24C2
:10014800D96EDA6A050EDA22DF8402D8B6EF00F03B
:100158000500FA6E3850FD6E3950FE6EF850FF6E8D
:10016800FA501200010E2D24D96EDA6A050EDA2231
:10017800DF50D8B4C2EF00F0C4EF00F0D3EF00F0C6
:1001880002D8D1EF00F00500FA6E3650FD6E3750F8
:10019800FE6EF850FF6EFA501200D5EF00F075ECC5
:1001A80002F01200AC90EC0E436E000E446EC5ECEB
:1001B80002F0AC92A20E436E030E446EC0EC02F045
:1001C800000E0201A56F000EA66F000EA76F000EAD
:1001D800A86F000EA96F000EAA6FB00EAB6F800E4D
:1001E800AC6F000EAD6FA00EAE6F010EAF6F000EBC
:1001F800B06F000EB16F000EB26F000EB36FDE0E5F
:10020800436E050E446ECFEC02F0DC0E436E050E15
:10021800446ECAEC02F0CC0E436E050E446ED4EC6C
:1002280002F0000E2A6E000E2F6E000E2E6E200EAB
:10023800406E000E2D6E000E2C6E000E2B6EAC80E4
:100248001200000E0301D96F000EDA6F000EDB6F8B
:10025800000EDC6F000EDF6F000EE06F000EE56F22
:10026800000EE76F000EEC6F000EEE6F000EEF6FE2
:10027800000EF06F000EF16F000EF26F000EF46FBB
:10028800100EF56F000EF66F000EF76F000EF86F88
:10029800000EF96F0A0EFA6F840EF36FB494A984F6
:1002A800E20E436E050E446EDEEC02F01200B5EC71
:1002B80002F02150435E2250445A445009E1320E64
:1002C800435CD8A06AEF01F06CEF01F084EF01F015
:1002D800B5EC02F043C521F544C522F5C0BA77EF65
:1002E80001F07AEF01F0010E7BEF01F0000EFF0A3A
:1002F800476E473A4746C0504718DF0B4718C06E4D
:1003080012008AEC02F0D20E436E050E446ED9EC50
:1003180002F0D68EE3EC02F05BEC01F0C0B897EF88
:1003280001F09AEF01F0010E9BEF01F0000EFF0AB9
:10033800486E483AC0504818EF0B4818C06E050E72
:1003480045EC02F043C525F544C526F590EF01F0CC
:100358000DEF00F0000EBE6E000EC06E3B0EC66EB6
:10036800020EC86E000E0401106F330E006F000EEF
:10037800016F000E116F000E026F000E126F370E24
:10038800036F3F0E136F3F0E046F3F0E146F100E76
:100398000201116F110E726F1200200E4060D7EF2C
:1003A80001F0D9EF01F0F0EF01F0800E2E24D96EA4
:1003B800DA6A050EDA22DF500201A36F2E2A1F0E19
:1003C8002E64E9EF01F0EBEF01F0EDEF01F0000E24
:1003D8002E6E402AF1EF01F0AC921200400E03019C
:1003E8001B6F630E196FC00E186F185119C345F5AE
:1003F800466A45C546F5456A4510326E4650336E25
:10040800B69EAB8EE00E436E050E446ED9EC02F03C
:10041800900E03011A6F1200B69E33500301196F34
:1004280032C518F330503110D8B41DEF02F01FEF69
:1004380002F02CEF02F002D82CEF02F00500FA6E61
:100448003050FD6E3150FE6EF850FF6EFA501200BB
:10045800120001EE60F1400EEE6AE806FDE101EEE1
:1004680001F12F0EEE6AE806FDE10401080E5D6F4A
:10047800000E5E6F000E5F6F000EF86E000185EFD4
:1004880001F0476E47C5ECF30301F38FF39DF38149
:10049800F3B151EF02F053EF02F04CEF02F0EB51E1
:1004A800466E456AEA514524436E000E4620446E66
:1004B8001200B49434503510D8B465EF02F067EFE9
:1004C80002F074EF02F002D874EF02F00500FA6E41
:1004D8003450FD6E3550FE6EF850FF6EFA50120023
:1004E8001200600E2D24D96EDA6A050EDA22A1C236
:1004F800DFF42D2A1F0E2D6484EF02F086EF02F040
:1005080088EF02F0000E2D6E2B2A1200ECEC02F0A0
:1005180099EC02F0AEEC01F0A7EC02F025EC01F04A
:10052800F2EC01F0D6EC00F01200000E0001636F4F
:10053800000E646F000E656F000E666F000E676F29
:10054800000E686F1200600E0001AD6F000EAF6FF5
:10055800000EB36F050EB16F000EB06F000EAC6FDA
:100568001200AB9E23C545F524C546F5AB8E45C59F
:1005780043F546C544F5120043C53CF544C53DF571
:10058800120043C53EF544C53FF5120043C538F592
:1005980044C539F5120043C53AF544C53BF5120088
:1005A80043C536F544C537F5120043C530F544C593
:1005B80031F5120043C534F544C535F51200030181
:1005C8001A8F120075EC02F01200234A242A120036
:0C05D800D69A120012001200120012004D
:020000040020DA
:10000000FF0FFF0FFF0FFF0FFF0FFF0FFF0FFF0F80
:10001000FF0FFF0FFF0FFF0FFF0FFF0FFF0FFF0F70
:10002000FF0FFF0FFF0FFF0FFF0FFF0FFF0FFF0F60
:10003000FF0FFF0FFF0FFF0FFF0FFF0FFF0FFF0F50
:020000040030CA
:0A000000ECFFF7FF9FFFFFFFFFFF7B
:00000001FF
