:040000000DEF00F010
:0400080095EF0BF075
:06001800FF0002EF0DF0F5
:1016000000F01700000000000000000000000000D3
:1016100000000000000000000000000000000000CA
:10162000000000000000000000661B4A1B2E1B008B
:1016300000DE1AF81B00000000B41B00000023505D
:10164000020D600EF324D96E050EF420DA6E000E42
:10165000DE6E000EDD6E0201B2A731EF0BF033EF4C
:101660000BF052EF0BF02350020D600EF324D96EF5
:10167000050EF420DA6E0501DF8211501210D8B485
:1016800044EF0BF046EF0BF052EF0BF002D852EFA5
:101690000BF00500FA6E1150FD6E1250FE6EFF6ADF
:1016A000FA5012000201B2A358EF0BF05AEF0BF000
:1016B00079EF0BF02350020D600EF324D96E050E66
:1016C000F420DA6E0501DF840F501010D8B46BEFF0
:1016D0000BF06DEF0BF079EF0BF002D879EF0BF018
:1016E0000500FA6E0F50FD6E1050FE6EFF6AFA5044
:1016F0001200A1C227F523283F0B286E225028187C
:10170000D8A485EF0BF087EF0BF089EF0BF094EF87
:101710000BF0000E2324D96EDA6A060EDA2227C5F2
:10172000DFF428C523F5212A1200FAC429F5FBC4E9
:101730002AF5A8AE9EEF0BF0A0EF0BF0A9EF0BF08F
:10174000B3AEA5EF0BF0A7EF0BF0A9EF0BF002EC97
:101750000EF0ABAEAEEF0BF0B0EF0BF0BBEF0BF05B
:10176000B6AEB5EF0BF0B7EF0BF0BBEF0BF01EEC26
:101770000DF0F3EF0BF0ACA2C0EF0BF0C2EF0BF0EB
:10178000D7EF0BF0B7A2C7EF0BF0C9EF0BF0D7EF15
:101790000BF002D8D5EF0BF00500FA6E3750FD6E56
:1017A0003850FE6EFF6AFA501200F3EF0BF0ACA057
:1017B000DCEF0BF0DEEF0BF0F3EF0BF0B7A0E3EF95
:1017C0000BF0E5EF0BF0F3EF0BF002D8F1EF0BF0BD
:1017D0000500FA6E3550FD6E3650FE6EFF6AFA5007
:1017E0001200F3EF0BF02AC5FBF429C5FAF411003F
:1017F000AC903E0E356E160E366EAC92740E376E91
:101800001A0E386E000E0201A16F000EA26F000EBC
:10181000A36F000EA46F000EA56F000EA66F000E42
:10182000A76F000EA86F000EA96F000EAA6FB00E72
:10183000AB6F800EAC6F000EAD6FA00EAE6F010EE1
:10184000AF6F000EB06F000EB16F000EB26F000EE2
:10185000B36F000E2B6E1C0E2C6EB3EC0DF0FE0E53
:101860002B6E1B0E2C6EA5EC0DF0000E2B6E000ED9
:101870002C6E97EC0DF0000E146E000E136E000E21
:10188000266E000E256E400E246E000E236E000E96
:10189000226E000E216EAC801200000EBE6E000E95
:1018A000C06E3B0EC66E020EC86E330E0401006F92
:1018B000000E106F000E016F000E116F000E02017E
:1018C000896F000E886F000E0401026F000E126F08
:1018D000370E036F3F0E136F3F0E046F3F0E146FF2
:1018E000110E0201726F100E116F000E0401056FD0
:1018F000000E066F000E076F000E156F000E166FBC
:10190000000E176F1200000E0301D96F000EDA6F80
:10191000000EDB6F000EDC6F000EDF6F000EE06F5D
:10192000000EE56F000EE76F050EEC6FA00EEE6F78
:10193000000EEF6F000EF06F000EF16F000EF26FF1
:10194000000EF46F130EF56F000EF66F000EF76FBA
:10195000030EF86F000EF96F070EFA6F840EF36F27
:10196000B494B5901200CFEC0DF001502B5E0250F4
:101970002C5A2C5009E1320E2B5CD8A0C2EF0CF08F
:10198000C4EF0CF0DEEF0CF0CFEC0DF02BC501F541
:101990002CC502F5EEEC0DF0C0BAD1EF0CF0D4EF8F
:1019A0000CF0010ED5EF0CF0000EFF0A2F6E2F3A4F
:1019B0002F46C0502F18DF0B2F18C06E120088EC76
:1019C0000DF0E60E2B6E1B0E2C6EDAEC0DF0D68EA3
:1019D000FCEC0DF0C088B3EC0CF0D0BAF2EF0CF0D8
:1019E000F5EF0CF0010EF6EF0CF0000EFF0A306E72
:1019F000303AC0503018EF0B3018C06EEBEF0CF0DF
:101A00000DEF00F001EE00F2800EEE6AE806FDE157
:101A100001EE60F1800EEE6AE806FDE101EE01F1F3
:101A2000260EEE6AE806FDE10401080E5D6F000E69
:101A30005E6F000E5F6F0001DFEF0CF0B69E34505A
:101A40000301196F33C518F331503210D8B42BEF9E
:101A50000DF02DEF0DF039EF0DF002D839EF0DF04C
:101A60000500FA6E3150FD6E3250FE6EFF6AFA507C
:101A700012001200400E246040EF0DF042EF0DF016
:101A800053EF0DF0400E2524D96EDA6A060EDA22E5
:101A9000DF500201A36F25283F0B276E27C525F5D0
:101AA000242A54EF0DF0AC921200D69AB490D6804E
:101AB000000E2B6E000E2C6EE9EC0DF0B990D68264
:101AC000000E2B6E000E2C6EE4EC0DF0BD90D68453
:101AD000000E2B6E000E2C6EDFEC0DF01200F60ED9
:101AE0000301196F3C0E186F440E1B6F19512D6EB8
:101AF0001851336E2DC534F5020E2B6E1C0E2C6E54
:101B0000DAEC0DF0B69EAB8E900E03011A6F120048
:101B1000C1EC0DF04DEC0CF083EC0CF0F8EC0DF09A
:101B20006FEC0DF0F8EC0BF055EC0DF012002B50B3
:101B30002C10D8B49EEF0DF0A0EF0DF0A4EF0DF037
:101B40002BC50DF52CC50EF512002B502C10D8B45A
:101B5000ACEF0DF0AEEF0DF0B2EF0DF02BC50FF5C1
:101B60002CC510F512002B502C10D8B4BAEF0DF084
:101B7000BCEF0DF0C0EF0DF02BC511F52CC512F523
:101B80001200600E0001AD6F000EAF6F000EB36F5C
:101B9000050EB16F000EB06F000EAC6F1200AB9E61
:101BA00005C52DF506C52EF5AB8E2DC52BF52EC51D
:101BB0002CF512002BC531F52CC532F512002BC5C2
:101BC00015F52CC516F512002BC517F52CC518F503
:101BD00012002BC519F52CC51AF51200010E1D6E49
:101BE000000E1B6E1200054A062A034A042A120040
:101BF000C30E0301D76F120003011A8F12001200E7
:061C0000120012001200A8
:020000040020DA
:10000000FF0FFF0FFF0FFF0FFF0FFF0FFF0FFF0F80
:10001000FF0FFF0FFF0FFF0FFF0FFF0FFF0FFF0F70
:10002000FF0FFF0FFF0FFF0FFF0FFF0FFF0FFF0F60
:10003000FF0FFF0FFF0FFF0FFF0FFF0FFF0FFF0F50
:020000040030CA
:0A000000FFFFF7FF9FFFFFFFFFFF68
:00000001FF
