:040000000DEF00F010
:040008009BEF0BF06F
:06001800FF00BCEF0CF03C
:1016000000CE1800000000000000000000000000F4
:1016100000000000000000000000000000000000CA
:101620000000000000000000002C1D101DF41C0034
:1016300000201B081E00000000C81D0000761C02D0
:101640001E00000000BE1D0000002C50020D600EA8
:10165000F324D96E050EF420DA6E000EDE6E000E55
:10166000DD6E0201B2A737EF0BF039EF0BF058EF48
:101670000BF02C50020D600EF324D96E050EF420F1
:10168000DA6E0501DF8215501610D8B44AEF0BF060
:101690004CEF0BF058EF0BF002D858EF0BF00500B1
:1016A000FA6E1550FD6E1650FE6EFF6AFA5012006B
:1016B0000201B2A35EEF0BF060EF0BF07FEF0BF0D7
:1016C0002C50020D600EF324D96E050EF420DA6E54
:1016D0000501DF8413501410D8B471EF0BF073EFD1
:1016E0000BF07FEF0BF002D87FEF0BF00500FA6EE6
:1016F0001350FD6E1450FE6EFF6AFA501200A1C224
:1017000053F52C283F0B546E2B505418D8A48BEF54
:101710000BF08DEF0BF08FEF0BF09AEF0BF0000E4C
:101720002C24D96EDA6A060EDA2253C5DFF454C5CA
:101730002CF52A2A1200FAC455F5FBC456F5A8AEBA
:10174000A4EF0BF0A6EF0BF0AFEF0BF0B3AEABEFE7
:101750000BF0ADEF0BF0AFEF0BF00FEC0FF0ABAE0B
:10176000B4EF0BF0B6EF0BF0C1EF0BF0B6AEBBEF82
:101770000BF0BDEF0BF0C1EF0BF0CFEC0DF00BEF6A
:101780000CF0ABA8C6EF0BF0C8EF0BF0D3EF0BF0EB
:10179000B6A8CDEF0BF0CFEF0BF0D3EF0BF0B2EC20
:1017A0000DF00BEF0CF0ACA2D8EF0BF0DAEF0BF072
:1017B000EFEF0BF0B7A2DFEF0BF0E1EF0BF0EFEF85
:1017C0000BF002D8EDEF0BF00500FA6E5150FD6EF4
:1017D0005250FE6EFF6AFA5012000BEF0CF0ACA0F4
:1017E000F4EF0BF0F6EF0BF00BEF0CF0B7A0FBEF04
:1017F0000BF0FDEF0BF00BEF0CF002D809EF0CF043
:101800000500FA6E4F50FD6E5050FE6EFF6AFA50A2
:1018100012000BEF0CF056C5FBF455C5FAF411009D
:101820001F50020DE00EF324D96E050EF420DA6E7F
:10183000DEC4EAF5DDC4EBF520500501EA25D96EDA
:10184000000EEB21DA6EDF50EC6FED6BBEEC0EF0AC
:101850003050575E3150585A0501EC51575CED51EC
:101860005858D8A036EF0CF038EF0CF066EF0CF0BB
:10187000202A1F50020DE00EF324D96E050EF4202D
:10188000DA6EDEC4EAF5DDC4EBF52050EA25D96E48
:10189000000EEB21DA6EDF50D8A451EF0CF053EFBD
:1018A0000CF055EF0CF0000E206EBEEC0EF057C59C
:1018B00030F558C531F520A060EF0CF062EF0CF068
:1018C00065EF0CF0C09A66EF0CF0C08A1200AC9085
:1018D0004A0E4F6E160E506EAC920C0E516E1C0ED0
:1018E000526E000E0201A16F000EA26F000EA36FD8
:1018F000000EA46F000EA56F000EA66F000EA76F5E
:10190000000EA86F000EA96F000EAA6FB00EAB6F8D
:10191000800EAC6F000EAD6FA00EAE6F010EAF6FFC
:10192000000EB06F000EB16F000EB26F000EB36FFD
:101930001C0E576E1E0E586E96EC0EF01A0E576E59
:101940001E0E586E88EC0EF0000E576E000E586E8C
:101950007AEC0EF0000E186E000E176E000E2F6E51
:10196000000E2E6E400E2D6E000E2C6E000E2B6E95
:10197000000E2A6EAC801200B40EF66E1D0EF76ECD
:10198000000EF86E01EEE0F110EE0AF00900F5C469
:10199000EEF4E550E150FAE1640EF66E1D0EF76EBE
:1019A000000EF86E01EE30F110EE17F00900F5C4EC
:1019B000EEF4E550E150FAE101EE00F2800EEE6A3D
:1019C000E806FDE101EE60F1800EEE6AE806FDE159
:1019D00001EE01F12F0EEE6AE806FDE10401080EAA
:1019E0005D6F000E5E6F000E5F6F0001EBEF0DF09C
:1019F000000EBE6E000EC06E3B0EC66E020EC86EAE
:101A0000330E0401006F000E106F000E016F000E08
:101A1000116F000E0201896F000E886F000E040125
:101A2000026F000E126F370E036F3F0E136F3F0EE3
:101A3000046F3F0E146F110E0201726F100E116FC2
:101A4000000E0401056F000E066F000E076F000EFA
:101A5000156F000E166F000E176F1200C9EC0EF016
:101A60000550575E0650585A585009E1320E575CDF
:101A7000D8A03DEF0DF03FEF0DF05FEF0DF0C9EC9A
:101A80000EF057C505F558C506F5232A130E236435
:101A90004CEF0DF04EEF0DF05FEF0DF0000E236EEA
:101AA0002250D4EC0EF0222A050E2218D8A45BEFA7
:101AB0000DF05DEF0DF05FEF0DF0000E226E1200E5
:101AC000000E0301D96F000EDA6F000EDB6F000EFF
:101AD000DC6F000EDF6F000EE06F000EE56F000E92
:101AE000E76F050EEC6FA00EEE6F000EEF6F000EAD
:101AF000F06F000EF16F000EF26F000EF46F130E18
:101B0000F56F000EF66F000EF76F030EF86F000E04
:101B1000F96F070EFA6F840EF36FB494B59012004C
:101B2000000E0301156F000E166F010E176FD80E11
:101B3000136FEF0E126F125113C359F55A6A59C53C
:101B40005AF5596A5910496E5A504A6E200E576E0E
:101B50001E0E586EE4EC0EF0B698AB88230E03010F
:101B6000146F1200B69849C553F54AC554F554ECA4
:101B70000EF047504810D8B4C0EF0DF0C2EF0DF092
:101B8000CEEF0DF002D8CEEF0DF00500FA6E475003
:101B9000FD6E4850FE6EFF6AFA5012001200B69EAB
:101BA0004E500301196F4DC518F34B504C10D8B46B
:101BB000DCEF0DF0DEEF0DF0EAEF0DF002D8EAEF0A
:101BC0000DF00500FA6E4B50FD6E4C50FE6EFF6A34
:101BD000FA501200120069EC0EF0F00E576E1D0E56
:101BE000586EDFEC0EF0140E576E1E0E586EE4ECBD
:101BF0000EF0D68E01EC0FF004EC0FF02EEC0DF091
:101C000007EC0FF0FEEF0DF00DEF00F0400E2D6031
:101C10000CEF0EF00EEF0EF01FEF0EF0400E2E2424
:101C2000D96EDA6A060EDA22DF500201A36F2E287F
:101C30003F0B536E53C52EF52D2A20EF0EF0AC92BC
:101C40001200D69AB490D680000E576E000E586ED1
:101C5000F3EC0EF0B990D682000E576E000E586E5F
:101C6000EEEC0EF0BD90D684000E576E000E586E4E
:101C7000E9EC0EF01200F60E0301196F3C0E186F1E
:101C8000440E1B6F1951596E18514D6E59C54EF5C2
:101C9000220E576E1E0E586EDFEC0EF0B69EAB8E07
:101CA000900E03011A6F1200030114A55AEF0EF0F3
:101CB0005CEF0EF064EF0EF014915450136F53C5A7
:101CC00012F3148168EF0EF05450136F53C512F3E2
:101CD0001200A4EC0EF0F8EC0CF060EC0DF0FDEC52
:101CE0000EF090EC0DF03BEC0EF067EC0CF021ECFC
:101CF0000EF0120057505810D8B481EF0EF083EF59
:101D00000EF087EF0EF057C511F558C512F5120009
:101D100057505810D8B48FEF0EF091EF0EF095EFAA
:101D20000EF057C513F558C514F51200575058104A
:101D3000D8B49DEF0EF09FEF0EF0A3EF0EF057C555
:101D400015F558C516F51200600E0001AD6F000EB6
:101D5000AF6F000EB36F050EB16F000EB06F000EC7
:101D6000AC6F12003200051E051E055F00051E0542
:0B1D70005F005F0500055F0005FA0042
:101D7C00AB9803C559F504C55AF5AB8859C557F549
:101D8C005AC558F51200AB9E09C559F50AC55AF546
:101D9C00AB8E59C557F55AC558F51200576E000E43
:101DAC00206E57C51FF51200440541053905320553
:101DBC003E0557C54BF558C54CF5120057C547F5B0
:101DCC0058C548F5120057C519F558C51AF5120033
:101DDC0057C51BF558C51CF5120057C51DF558C540
:101DEC001EF51200094A0A2A074A082A1200C30ED5
:101DFC000301D76F120003011A8F12000301148123
:101E0C00120010EC0CF01200034A042A120012000B
:081E1C00120012001200120076
:020000040020DA
:10000000FF0FFF0FFF0FFF0FFF0FFF0FFF0FFF0F80
:10001000FF0FFF0FFF0FFF0FFF0FFF0FFF0FFF0F70
:10002000FF0FFF0FFF0FFF0FFF0FFF0FFF0FFF0F60
:10003000FF0FFF0FFF0FFF0FFF0FFF0FFF0FFF0F50
:020000040030CA
:0A000000FFFFF7FF9FFFFFFFFFFF68
:00000001FF
