:040000000DEF00F010
:0400080093EF0BF077
:06001800FF0087EF0DF070
:1016000000EC1700000000000000000000000000D7
:1016100000000000000000000000000000000000CA
:10162000000000000000000000661B4A1B2E1B008B
:1016300000AC1AF61B00000000CE1B0000003E505C
:10164000020D010EF324D96E050EF420DA6E000EA1
:10165000DE6E000EDD6E0201B2A731EF0BF033EF4C
:101660000BF051EF0BF03E50020D010EF324D96E3A
:10167000050EF420DA6EDF8233503410D8B443EF15
:101680000BF045EF0BF051EF0BF002D851EF0BF0E0
:101690000500FA6E3350FD6E3450FE6EFF6AFA504C
:1016A00012000201B2A357EF0BF059EF0BF077EFE6
:1016B0000BF03E50020D010EF324D96E050EF420FE
:1016C000DA6EDF8431503210D8B469EF0BF06BEF73
:1016D0000BF077EF0BF002D877EF0BF00500FA6E06
:1016E0003150FD6E3250FE6EFF6AFA501200A1C2F8
:1016F00042F53E28070B436E3D504318D8A483EFB4
:101700000BF085EF0BF087EF0BF092EF0BF0110E63
:101710003E24D96EDA6A050EDA2242C5DFF443C5EB
:101720003EF53C2A1200FAC444F5FBC445F5A8AEC8
:101730009CEF0BF09EEF0BF0A7EF0BF0B3AEA3EF17
:101740000BF0A5EF0BF0A7EF0BF004EC0EF0ACA242
:10175000ACEF0BF0AEEF0BF0C3EF0BF0B7A2B3EFB3
:101760000BF0B5EF0BF0C3EF0BF002D8C1EF0BF0AD
:101770000500FA6E4D50FD6E4E50FE6EFF6AFA5037
:101780001200F1EF0BF0ACA0C8EF0BF0CAEF0BF0BA
:10179000DFEF0BF0B7A0CFEF0BF0D1EF0BF0DFEFE7
:1017A0000BF002D8DDEF0BF00500FA6E4B50FD6E2A
:1017B0004C50FE6EFF6AFA501200F1EF0BF0ABAE28
:1017C000E4EF0BF0E6EF0BF0F1EF0BF0B6AEEBEF62
:1017D0000BF0EDEF0BF0F1EF0BF0ECEC0CF0F1EFA8
:1017E0000BF045C5FBF444C5FAF41100AC903E0E75
:1017F0004B6E160E4C6EAC92100E4D6E1A0E4E6E57
:10180000000E0201A16F000EA26F000EA36F000E6A
:10181000A46F000EA56F000EA66F000EA76F000E3E
:10182000A86F000EA96F000EAA6FB00EAB6F800EEE
:10183000AC6F000EAD6FA00EAE6F010EAF6F000E5D
:10184000B06F000EB16F000EB26F000EB36F040EDA
:10185000466E1C0E476EB3EC0DF0020E466E1C0E6B
:10186000476EA5EC0DF0000E466E000E476E97EC2D
:101870000DF0000E366E000E356E000E416E000E3D
:10188000406E080E3F6E000E3E6E000E3D6E000E66
:101890003C6EAC801200DCEC0DF02150465E225014
:1018A000475A475009E1320E465CD8A05AEF0CF077
:1018B0005CEF0CF085EF0CF0DCEC0DF046C521F58B
:1018C00047C522F5C0BA67EF0CF06AEF0CF0010EC5
:1018D0006BEF0CF0000EFF0A4A6E4A3A4A46C050BF
:1018E0004A18DF0B4A18C06EC0B879EF0CF07CEFD5
:1018F0000CF0010E7DEF0CF0000EFF0A4A6E4A3A22
:10190000C0504A18EF0B4A18C06E1200000EBE6E8F
:10191000000EC06E3F0EC66E020EC86E370E04017A
:10192000006F000E106F000E016F000E116F000EA1
:101930000201896F000E886F000E0401026F000E15
:10194000126F370E036F3F0E136F3F0E046F3F0E83
:10195000146F110E0201726F100E116F000E040150
:10196000056F000E066F000E076F000E156F000E5C
:10197000166F000E176F1200000E0301D96F000ED4
:10198000DA6F000EDB6F000EDC6F000EDF6F000EF3
:10199000E06F000EE56F000EE76F000EEC6F000EBB
:1019A000EE6F000EEF6F000EF06F000EF16F000E85
:1019B000F26F000EF46F100EF56F000EF66F000E52
:1019C000F76F000EF86F000EF96F0A0EFA6F840EB3
:1019D000F36FB494B5901200B69E52500301196F84
:1019E00051C518F34F505010D8B4F9EF0CF0FBEF7D
:1019F0000CF007EF0DF002D807EF0DF00500FA6EBE
:101A00004F50FD6E5050FE6EFF6AFA5012001200E9
:101A1000080E3F600EEF0DF010EF0DF021EF0DF00E
:101A2000190E4024D96EDA6A050EDA22DF5002015F
:101A3000A36F4028070B426E42C540F53F2A22EFB4
:101A40000DF0AC921200D69AB490D680000E466E7D
:101A5000000E476EF6EC0DF0B990D682000E466E81
:101A6000000E476EF1EC0DF0BD90D684000E466E70
:101A7000000E476EECEC0DF01200CFEC0DF0FC0EFA
:101A8000466E1B0E476EE7EC0DF0D68EFBEC0DF0AC
:101A9000C0884BEC0CF0050E6FEC0DF046C537F529
:101AA00047C538F549EF0DF00DEF00F0F60E0301D4
:101AB000196F3C0E186F440E1B6F1951486E185168
:101AC000516E48C552F5060E466E1C0E476EE7EC89
:101AD0000DF0B69EAB8E900E03011A6F12004A6E87
:101AE0004AC5ECF30301F38FF39DF381F3B17BEF70
:101AF0000DF07DEF0DF076EF0DF0EB51496E486A79
:101B0000EA514824466E000E4920476E120001EE4D
:101B100001F1410EEE6AE806FDE10401080E5D6F79
:101B2000000E5E6F000E5F6F00013DEF0DF046503E
:101B30004710D8B49EEF0DF0A0EF0DF0A4EF0DF01C
:101B400046C52FF547C530F5120046504710D8B4AA
:101B5000ACEF0DF0AEEF0DF0B2EF0DF046C531F584
:101B600047C532F5120046504710D8B4BAEF0DF011
:101B7000BCEF0DF0C0EF0DF046C533F547C534F5A9
:101B80001200600E0001AD6F000EAF6F000EB36F5C
:101B9000050EB16F000EB06F000EAC6F1200C1ECFD
:101BA0000DF086EC0CF0BCEC0CF056EC0DF0F6EC05
:101BB0000BF023EC0DF01200AB9E23C548F524C5B5
:101BC00049F5AB8E48C546F549C547F5120046C5EF
:101BD0004FF547C550F5120046C525F547C526F512
:101BE000120046C527F547C528F5120046C529F558
:101BF00047C52AF5120003011A8F1200234A242A2E
:0A1C00001200120012001200120080
:020000040020DA
:10000000FF0FFF0FFF0FFF0FFF0FFF0FFF0FFF0F80
:10001000FF0FFF0FFF0FFF0FFF0FFF0FFF0FFF0F70
:10002000FF0FFF0FFF0FFF0FFF0FFF0FFF0FFF0F60
:10003000FF0FFF0FFF0FFF0FFF0FFF0FFF0FFF0F50
:020000040030CA
:0A000000FFFFF7FF9FFFFFFFFFFF68
:00000001FF
