:040000000DEF00F010
:040008000FEF00F006
:10001800FF0004EF02F0FAC458F5FBC459F5ACA28E
:1000280018EF00F01AEF00F030EF00F0B7A21FEF62
:1000380000F021EF00F030EF00F002D82EEF00F0D2
:100048000500FA6E5350FD6E5450FE6EF850FF6E68
:10005800FA50120071EF00F0ACA035EF00F037EF66
:1000680000F04DEF00F0B7A03CEF00F03EEF00F0DD
:100078004DEF00F002D84BEF00F00500FA6E555036
:10008800FD6E5650FE6EF850FF6EFA50120071EF7A
:1000980000F0ABAE52EF00F054EF00F05FEF00F06D
:1000A800B6AE59EF00F05BEF00F05FEF00F0E7EC61
:1000B80001F071EF00F0A9A464EF00F066EF00F022
:1000C80071EF00F0B4A46BEF00F06DEF00F071EF8A
:1000D80000F01CEC02F071EF00F059C5FBF458C5B4
:1000E800FAF41100010E4424D96EDA6A050EDA22F8
:1000F800000EDF6E0201B2A784EF00F086EF00F079
:100108009AEF00F0010E4424D96EDA6A050EDA225D
:10011800DF8202D89AEF00F00500FA6E5150FD6EAA
:100128005250FE6EF850FF6EFA5012000201B2A350
:10013800A0EF00F0A2EF00F0B6EF00F0010E4424AB
:10014800D96EDA6A050EDA22DF8402D8B6EF00F03B
:100158000500FA6E4F50FD6E5050FE6EF850FF6E5F
:10016800FA501200010E4424D96EDA6A050EDA221A
:10017800DF50D8B4C2EF00F0C4EF00F0D3EF00F0C6
:1001880002D8D1EF00F00500FA6E4D50FD6E4E50CA
:10019800FE6EF850FF6EFA501200D5EF00F034EC06
:1001A80002F01200AC90EC0E5A6E000E5B6E79EC09
:1001B80002F0AC92500E5A6E030E5B6E74EC02F0B5
:1001C800000E0201A56F000EA66F000EA76F000EAD
:1001D800A86F000EA96F000EAA6FB00EAB6F800E4D
:1001E800AC6F000EAD6FA00EAE6F010EAF6F000EBC
:1001F800B06F000EB16F000EB26F000EB36F3A0E03
:100208005A6E050E5B6E83EC02F0380E5A6E050EC0
:100218005B6E7EEC02F02E0E5A6E050E5B6E88EC5D
:1002280002F0000E416E000E466E000E456E200E66
:10023800576E000E446E000E436E000E426EAC8088
:100248001200000E0301D96F000EDA6F000EDB6F8B
:10025800000EDC6F000EDF6F000EE06F000EE56F22
:10026800000EE76F000EEC6F000EEE6F000EEF6FE2
:10027800000EF06F000EF16F000EF26F000EF46FBB
:10028800100EF56F000EF66F000EF76F000EF86F88
:10029800000EF96F0A0EFA6F840EF36FB494A984F6
:1002A8003E0E5A6E050E5B6E92EC02F0120049EC9F
:1002B80002F0C0BA62EF01F065EF01F0010E66EFDF
:1002C80001F0000EFF0A0501806F803B8047C05097
:1002D8008019DF0B8019C06EC0B875EF01F078EF98
:1002E80001F0010E79EF01F0000EFF0A806F803BEC
:1002F800C0508019EF0B8019C06E5DEF01F00DEF53
:1003080000F0000EBE6E000EC06E3B0EC66E020EF2
:10031800C86E000E0401106F330E006F000E016FDF
:10032800000E116F000E026F000E126F370E036F72
:100338003F0E136F3F0E046F3F0E146F100E020135
:10034800116F110E726F1200200E5760AEEF01F0A0
:10035800B0EF01F0C7EF01F0210E4524D96EDA6A3B
:10036800050EDA22DF500201A36F452A1F0E4564ED
:10037800C0EF01F0C2EF01F0C4EF01F0000E456ECE
:10038800572AC8EF01F0AC921200400E03011B6F10
:10039800630E196FC00E186F185119C35CF55D6AAA
:1003A8005CC55DF55C6A5C10496E5D504A6EB69E30
:1003B800AB8E3C0E5A6E050E5B6E8DEC02F0900E05
:1003C80003011A6F1200B69E4A500301196F49C5FE
:1003D80018F347504810D8B4F4EF01F0F6EF01F0E5
:1003E80003EF02F002D803EF02F00500FA6E47505F
:1003F800FD6E4850FE6EF850FF6EFA501200120063
:1004080001EE60F1200EEE6AE806FDE101EE01F171
:10041800460EEE6AE806FDE10401080E5D6F000E67
:100428005E6F000E5F6F000EF86E00015BEF01F06B
:10043800B4944B504C10D8B424EF02F026EF02F0DD
:1004480033EF02F002D833EF02F00500FA6E4B509A
:10045800FD6E4C50FE6EF850FF6EFA5012001200FE
:10046800600E4424D96EDA6A050EDA22A1C2DFF4DE
:10047800442A1F0E446443EF02F045EF02F047EFB1
:1004880002F0000E446E422A12009AEC02F058EC78
:1004980002F085EC01F066EC02F025EC01F0C9EC05
:1004A80001F0D6EC00F01200000E0001636F000EA0
:1004B800646F000E656F000E666F000E676F000EAA
:1004C800686F1200600E0001AD6F000EAF6F000E76
:1004D800B36F050EB16F000EB06F000EAC6F120057
:1004E8005AC553F55BC554F512005AC555F55BC599
:1004F80056F512005AC54FF55BC550F512005AC59E
:1005080051F55BC552F512005AC54DF55BC54EF560
:1005180012005AC547F55BC548F512005AC54BF598
:100528005BC54CF5120034EC02F01200D69A1200AA
:08053800120012001200120073
:020000040020DA
:10000000FF0FFF0FFF0FFF0FFF0FFF0FFF0FFF0F80
:10001000FF0FFF0FFF0FFF0FFF0FFF0FFF0FFF0F70
:10002000FF0FFF0FFF0FFF0FFF0FFF0FFF0FFF0F60
:10003000FF0FFF0FFF0FFF0FFF0FFF0FFF0FFF0F50
:020000040030CA
:0A000000ECFFF7FF9FFFFFFFFFFF7B
:00000001FF
